:020000040800F2
:1000000018040020010100086D02000865020008C4
:100010006902000849010008750500080000000099
:100020000000000000000000000000009102000835
:100030004D010008000000006F020008A104000844
:100040001B0100081B0100081B0100081B01000820
:100050001B0100081B0100081B0100081B01000810
:100060001B0100081B0100081B0100081B01000800
:100070001B0100081B0100081B0100081B010008F0
:100080001B0100081B0100081B0100081B010008E0
:100090001B0100081B0100081B0100081B010008D0
:1000A0001B0100081B0100081B0100081B010008C0
:1000B0001B010008310500081B0100081B01000896
:1000C0001B0100081B0100081B0100081B010008A0
:1000D0001B0100081B0100081B0100081B01000890
:1000E0001B0100081B0100081B010008DFF80CD0F1
:1000F00000F018F80048004799050008180400208F
:100100000648804706480047FEE7FEE7FEE7FEE7B1
:10011000FEE7FEE7FEE7FEE7FEE7FEE7A5040008D0
:10012000ED000008064C074D06E0E06840F00103D2
:1001300094E8070098471034AC42F6D3FFF7DAFF93
:10014000400600086006000800BFFEE770472DE982
:10015000F04102460025002600200023002400274D
:1001600091F803C00CF00F0591F803C00CF0100CCF
:10017000BCF1000F03D091F802C04CEA050591F8DC
:1001800000C0BCF1000F31D0146800202BE04FF00C
:10019000010C0CFA00F3B1F800C00CEA03069E4211
:1001A00020D183004FF00F0C0CFA03F7BC4305FA83
:1001B00003FC4CEA040491F803C0BCF1280F06D1FB
:1001C0004FF0010C0CFA00FCC2F814C00AE091F8E0
:1001D00003C0BCF1480F05D14FF0010C0CFA00FC34
:1001E000C2F810C0401C0828D1D31460B1F800C078
:1001F000BCF1FF0F34DD546800202EE000F1080C44
:100200004FF0010808FA0CF3B1F800C00CEA03063D
:100210009E4221D183004FF00F0C0CFA03F7BC4330
:1002200005FA03FC4CEA040491F803C0BCF1280F62
:1002300005D100F1080C08FA0CF8C2F8148091F806
:1002400003C0BCF1480F07D100F1080C4FF00108C2
:1002500008FA0CF8C2F81080401C0828CED354606D
:10026000BDE8F08100BFFEE700BFFEE770477047C2
:1002700029B1064A92690243044B9A6104E0034A99
:1002800092698243014B9A6170470000001002405E
:10029000704710B500F002F810BD00000CB500204A
:1002A000019000903348006840F480303149086084
:1002B00000BF3048006800F4003000900198401CF6
:1002C0000190009818B90198B0F5A06FF1D12948B4
:1002D000006800F4003010B10120009001E000201F
:1002E00000900098012843D12348006840F0100096
:1002F000214908600846006820F0030008600846AD
:10030000006840F0020008601A48406819494860D7
:100310000846406848600846406840F4806048608D
:100320000846406820F47C1048600846406840F465
:10033000E81048600846006840F08070086000BF20
:100340000C48006800F000700028F9D009484068A7
:1003500020F00300074948600846406840F002006A
:10036000486000BF0348406800F00C000828F9D13D
:100370000CBD0000001002400020024008B5012121
:100380000820FFF775FF4FF48060ADF800000320F0
:100390008DF8020010208DF8030069460148FFF730
:1003A000D6FE08BD000C014010B5002404E0482032
:1003B00000F0A8F8601CC4B2642CF8DB10BD01B5D5
:1003C000002220E09DF8000000F0800048B100BF4E
:1003D00000F022F900F020F900F028F900F026F9E9
:1003E00009E000BF00F018F900F020F900F01EF954
:1003F00000F01CF900BF9DF800004006000E8DF8CB
:100400000000501CC2B2082ADCDB082220E09DF864
:10041000010000F0800048B100BF00F0FDF800F0DE
:10042000FBF800F003F900F001F909E000BF00F06B
:10043000F3F800F0FBF800F0F9F800F0F7F800BF6F
:100440009DF801004006000E8DF80100501CC2B25C
:10045000102ADCDB102220E09DF8020000F0800072
:1004600048B100BF00F0D8F800F0D6F800F0DEF890
:1004700000F0DCF809E000BF00F0CEF800F0D6F89C
:1004800000F0D4F800F0D2F800BF9DF8020040065A
:10049000000E8DF80200501CC2B2182ADCDB08BD29
:1004A0007047000010B51348006840F00100114982
:1004B000086008464068104908400E4948600846F0
:1004C00000680E4908400B4908600846006820F49F
:1004D000802008600846406820F4FE0048604FF421
:1004E0001F008860FFF7D5FE4FF0006004490860E8
:1004F00010BD0000001002400000FFF8FFFFF6FEF4
:1005000008ED00E000B9704700214FF0E0221161D2
:1005100011464861002191610521116100BF4FF032
:10052000E021096901F480310029F8D000BFEAE731
:1005300010B50121044800F00CF818B1012102485F
:1005400000F004F810BD000000040040CA4302821D
:10055000704730B50246002000230024158A05EAC2
:100560000103958905EA010413B10CB1012000E0F3
:10057000002030BD00BFFEE702E008C8121F08C11E
:10058000002AFAD170477047002001E001C1121F14
:10059000002AFBD17047000008B5FFF7EFFE38E0F6
:1005A00000240BE01B480188ADF8001080788DF81E
:1005B00002000098FFF703FF601C84B2022CF1DBFD
:1005C000FFF7F2FE134800787B2805DA114800781F
:1005D000401C1049087002E000200E4908700D48C8
:1005E00040787B2805DA0B484078401C0949487060
:1005F00002E0002007494870064880787B2805DA29
:1006000004488078401C0349887002E000200149BA
:100610008870C5E7000000200348006840F480604F
:1006200001490860704700000C0C01400348006855
:1006300020F4806001490860704700000C0C014004
:100640006006000800000020140000007805000883
:100650007406000814000020040400008805000847
:1006600046003C01020304050607080000000000E4
:040670000000000086
:04000005080000ED02
:00000001FF
