:020000040800F2
:1000000080040020010100087D0A0008AF090008F3
:10001000790A00088102000891130008000000001E
:10002000000000000000000000000000610B00085C
:1000300085080008000000001D0B00088F10000854
:100040001B0100081B0100081B0100081B01000820
:100050001B0100081B0100081B0100081B01000810
:100060001B0100081B0100081B0100081B01000800
:100070001B0100081B0100081B0100081B010008F0
:100080001B0100081B0100081B0100081B010008E0
:10009000251300081B0100081B0100081B010008B4
:1000A0001B0100081B0100081B0100081B010008C0
:1000B000451100081B0100081B0100081B01000876
:1000C0001B0100081B0100081B0100081B010008A0
:1000D0001B0100081B0100081B0100081B01000890
:1000E0001B0100081B0100081B010008DFF80CD0F1
:1000F00000F018F800480047E113000880040020D1
:100100000648804706480047FEE7FEE7FEE7FEE7B1
:10011000FEE7FEE7FEE7FEE7FEE7FEE791100008D8
:10012000ED000008064C074D06E0E06840F00103D2
:1001300094E8070098471034AC42F6D3FFF7DAFF93
:10014000C8150008E815000810B5002423490878F0
:10015000234900F069FC214948782149083100F021
:1001600063FC1E4988781E49103100F05DFC1B4974
:10017000C8781B49183100F057FC1849087918490C
:10018000203100F051FC154948791549283100F01B
:100190004BFC124988791249303100F045FC00BF10
:1001A00018E00E48005D00F0200058B10B48005DDB
:1001B0004006000E094908550846005D40F0010060
:1001C000085505E00548005D4006000E0349085546
:1001D000601CC4B2072CE4DB10BD000060000020EE
:1001E00018000020F8B505460024002600200090E5
:1001F000012D10D1FFF7A8FF00BF05E01E490098B0
:1002000000F03EFE601C84B2B4F5967FF6DB14204D
:100210008DF8000024E035B1022D01D0032D02D16C
:1002200014208DF8000000240DE0002607E013489C
:1002300000EBC401009800F023FE701C86B2402E33
:10024000F5DB601C84B2072CEFDB002405E00A49D3
:10025000009800F015FE601C84B2B4F5967FF6DBC2
:10026000002406E004490831009800F009FE601CF3
:1002700084B20E2CF6DBF8BD5000002018000020E0
:1002800000BFFEE710B50021837A012202FA03F1D4
:100290003D4A126842F001023B4B1A603A4A1C3256
:1002A00012688A43384B1C331A60027BCAB9364A3B
:1002B0000C3212688A43344B0C331A604288C3886C
:1002C00042EA0343304A4032847A42F834300288AA
:1002D000838842EA03432C4A4032847A02EBC40208
:1002E0005360027B012A19D1274A0C3212680A4353
:1002F000254B0C331A604288038842EA0343224AA2
:100300004032847A42F83430C288838842EA034318
:100310001D4A4032847A02EBC4025360C27A3AB971
:10032000194A121D12688A43174B1B1D1A6006E0FA
:10033000154A121D12680A43134B1B1D1A600289CD
:1003400032B9114A143212688A430F4B14331A60BF
:100350000289012A06D10C4A143212680A430A4B58
:1003600014331A60427B012A06D1074A1C321268F4
:100370000A43054B1C331A60034A126822F001023B
:10038000014B1A6010BD0000006600401AB14369BD
:100390000B43436102E043698B434361704730B5CF
:1003A000024600200023146824F00204146014683C
:1003B00044F00104146000E05B1C546804F0010484
:1003C0001CB94FF6FF74A342F6D1546804F001043F
:1003D0000CB900206CE08C79012C04D1146844F035
:1003E0008004146003E0146824F080041460CC7965
:1003F000012C04D1146844F04004146003E0146834
:1004000024F0400414600C7A012C04D1146844F0E8
:100410002004146003E0146824F0200414604C7A73
:10042000012C04D1146844F01004146003E0146833
:1004300024F0100414608C7A012C04D1146844F068
:100440000804146003E0146824F008041460CC7AF3
:10045000012C04D1146844F00404146003E014680F
:1004600024F0040414608C78A407CD7844EA056471
:100470000D7944EA05444D7944EA05540D886D1E12
:100480002C43D461146824F001041460002300E0BC
:100490005B1C546804F001041CB14FF6FF74A342C6
:1004A000F6D1546804F001040CB1002000E00120F2
:1004B00030BD0246002019B9D36803F0030006E0FE
:1004C000012903D1136903F0030000E00020704705
:1004D0002DE9F0418AB004460D4616461F46DDF868
:1004E00040800121042000F02BFB0121480600F090
:1004F00017FB4FF48050ADF8240003208DF8260040
:1005000018208DF8270009A92E4800F0BCF94FF4F7
:100510000060ADF8240048208DF8270009A929487B
:1005200000F0B1F900208DF81E008DF81F008DF845
:1005300020008DF821008DF8220001208DF8230085
:100540008DF81A808DF81B408DF81C508DF81D60B9
:10055000ADF8187006A91C48FFF721FF00208DF8A0
:1005600012008DF8130001208DF814000020ADF862
:100570000800ADF80A00ADF80C00ADF80E00ADF8BB
:10058000100001208DF8150002A8FFF77BFE012264
:1005900002210D48FFF7FAFE4FF4A06000F0B4FA14
:1005A00014208DF8040000208DF805008DF8060059
:1005B00001208DF8070001A800F06EFA00200AB0B3
:1005C000BDE8F081000801400064004010B500F56E
:1005D000D87303EB01131B6803F004031372137A3F
:1005E00053B900F5D87303EB01131B6840F2FF7495
:1005F00004EA5353136009E000F5D87303EB0113C9
:100600001B686FF0604404EAD303536000F5D873AD
:1006100003EB01131B6803F00203537200F5D87358
:1006200003EB01135B6803F00F03937200F5D873BB
:1006300003EB01135B681B0AD37400F5D87303EB5B
:1006400001139B68D37200F5D87303EB01139B6809
:100650001C0A147300F5D87303EB01139B681C0C80
:10066000547300F5D87303EB01139B681B0E93734F
:1006700000F5D87303EB0113DB68D37300F5D8736F
:1006800003EB0113DB681C0A147400F5D87303EB49
:100690000113DB681C0C547400F5D87303EB0113D1
:1006A000DB681B0E937421B9C36843F02003C36059
:1006B00003E0036943F02003036110BD10B5024657
:1006C0000020936803F08063B3F1806F00D110E0E5
:1006D000936803F00063B3F1006F01D1012008E0DB
:1006E000936803F08053B3F1805F01D1022000E0F2
:1006F0000420042874D002F5C07303EB00131B68B8
:1007000003F0010402F5C07303EB00131C600B7AC5
:100710007BB94B7A0C8843EA445302F5C07404EB6E
:1007200000142468234302F5C07404EB0014236012
:1007300010E00B7A4C6843EAC4034C7A234302F579
:10074000C07404EB00142468234302F5C07404EB66
:10075000001423608B7A03F00F038B7202F5C073D1
:1007600003EB00135B6823F00F0402F5C07303EB87
:1007700000135C6002F5C07303EB00135B688C7AB6
:10078000234302F5C07404EB001463608B7B1C06EA
:100790004B7B44EA03440B7B44EA0323CC7A234398
:1007A00002F5C07404EB0014A3608B7C1C064B7C28
:1007B00044EA03440B7C44EA0323CC7B234302F545
:1007C000C07404EB0014E36002F5C07303EB001384
:1007D0001B6843F0010402F5C07303EB00131C60B7
:1007E00010BD000010B50246002321B1012907D039
:1007F00002290FD109E090681D4C00EA04030BE0C8
:1008000090681C4C00EA040306E090681A4C00EA69
:10081000040301E0002300BF00BF184C181BA342D3
:1008200016D007DC83B16FF08060184470B10228E5
:1008300018D111E0B0F5007F10D0114C204448B120
:10084000B0F5003F0ED10BE002230DE000230BE0DA
:10085000002309E0002307E0012305E0012303E072
:10086000012301E0002300BF00BFD8B210BD00008B
:10087000030000040003000800000310000100084A
:100880000001FFF770472DE9F041024600250026E0
:10089000002000230024002791F803C00CF00F056E
:1008A00091F803C00CF0100CBCF1000F03D091F8CC
:1008B00002C04CEA050591F800C0BCF1000F31D030
:1008C000146800202BE04FF0010C0CFA00F3B1F893
:1008D00000C00CEA03069E4220D183004FF00F0CAB
:1008E0000CFA03F7BC4305FA03FC4CEA040491F844
:1008F00003C0BCF1280F06D14FF0010C0CFA00FC2C
:10090000C2F814C00AE091F803C0BCF1480F05D149
:100910004FF0010C0CFA00FCC2F810C0401C082873
:10092000D1D31460B1F800C0BCF1FF0F34DD5468BE
:1009300000202EE000F1080C4FF0010808FA0CF33B
:10094000B1F800C00CEA03069E4221D183004FF0AB
:100950000F0C0CFA03F7BC4305FA03FC4CEA040441
:1009600091F803C0BCF1280F05D100F1080C08FA7A
:100970000CF8C2F8148091F803C0BCF1480F07D1FD
:1009800000F1080C4FF0010808FA0CF8C2F81080CA
:10099000401C0828CED35460BDE8F08102460020F8
:1009A00093680B400BB1012000E00020704700BFAE
:1009B000FEE7000038B500240121042000F0C0F853
:1009C0000121082000F0BCF803208DF8020010205F
:1009D0008DF8030000BF0DE0114800EBC4008088D3
:1009E000ADF800000E4951F834006946FFF74BFF9F
:1009F000601CC4B2072CEFDB00240DE0094800EBBB
:100A0000C4008088ADF80000064951F834006946FA
:100A1000FFF739FF601CC4B2022CEFDB38BD0000C9
:100A2000180000205000002070B504460E46002536
:100A30001FE004F02000314600F008F904F0100037
:100A4000314600F003F904F00800314600F0FEF8EA
:100A500004F00400314600F0F9F804F002003146D9
:100A600000F0F4F804F00100314600F0EFF8681CE3
:100A7000C5B20B2DDDDB70BD00BFFEE77047000087
:100A800000F01F0201219140024A430942F823105D
:100A90007047000080E100E070B5002100230F22C4
:100AA000C47804B3154C246804F4E064C4F5E0642D
:100AB000210AC1F10403CA40447804FA03F184789E
:100AC0001440214309010E4C0678A155047804F026
:100AD0001F050124AC4005786D11AD0005F1E0253E
:100AE000C5F8004109E0047804F01F050124AC407A
:100AF000044D0678761145F8264070BD0CED00E0F7
:100B000000E400E080E100E002490143024A116094
:100B1000704700000000FA050CED00E0704700008F
:100B200029B1064AD2690243044BDA6104E0034A60
:100B3000D2698243014BDA61704700000010024025
:100B400029B1064A92690243044B9A6104E0034AC0
:100B500092698243014B9A61704700000010024085
:100B6000704710B500F002F810BD00000CB5002071
:100B7000019000903348006840F4803031490860AB
:100B800000BF3048006800F4003000900198401C1D
:100B90000190009818B90198B0F5A06FF1D12948DB
:100BA000006800F4003010B10120009001E0002046
:100BB00000900098012843D12348006840F01000BD
:100BC000214908600846006820F0030008600846D4
:100BD000006840F0020008601A48406819494860FF
:100BE0000846406848600846406840F480604860B5
:100BF0000846406820F47C1048600846406840F48D
:100C0000E81048600846006840F08070086000BF47
:100C10000C48006800F000700028F9D009484068CE
:100C200020F00300074948600846406840F0020091
:100C3000486000BF0348406800F00C000828F9D164
:100C40000CBD0000001002400020024018B5024612
:100C500000230093002A07DD14238DF800300023C1
:100C60008DF801308DF80230002052E09DF80130FF
:100C700003F080032BB300BF0B68DB688C88234331
:100C80000C68E36000BF00BF00BF00BF00BF00BF33
:100C900000BF00BF00BF00BF00BF00BF00BF00BF5C
:100CA00000BF00BF00BF00BF00BF00BF00BF00BF4C
:100CB00000BF00BF0B68DB688C88A3430C68E3604F
:100CC0001FE000BF0B68DB688C8823430C68E3607F
:100CD0000B68DB688C88A3430C68E36000BF00BF2F
:100CE00000BF00BF00BF00BF00BF00BF00BF00BF0C
:100CF00000BF00BF00BF00BF00BF00BF00BF00BFFC
:100D000000BF9DF801305B061B0E8DF80130431CBF
:100D1000D8B20828AADB082052E09DF8003003F082
:100D200080032BB300BF0B68DB688C8823430C68FF
:100D3000E36000BF00BF00BF00BF00BF00BF00BF37
:100D400000BF00BF00BF00BF00BF00BF00BF00BFAB
:100D500000BF00BF00BF00BF00BF00BF00BF00BF9B
:100D600000BF0B68DB688C88A3430C68E3601FE05E
:100D700000BF0B68DB688C8823430C68E3600B685A
:100D8000DB688C88A3430C68E36000BF00BF00BF32
:100D900000BF00BF00BF00BF00BF00BF00BF00BF5B
:100DA00000BF00BF00BF00BF00BF00BF00BF00BF4B
:100DB0009DF800305B061B0E8DF80030431CD8B246
:100DC0001028AADB102052E09DF8023003F08003C7
:100DD0002BB300BF0B68DB688C8823430C68E3608F
:100DE00000BF00BF00BF00BF00BF00BF00BF00BF0B
:100DF00000BF00BF00BF00BF00BF00BF00BF00BFFB
:100E000000BF00BF00BF00BF00BF00BF00BF00BFEA
:100E10000B68DB688C88A3430C68E3601FE000BFAD
:100E20000B68DB688C8823430C68E3600B68DB6825
:100E30008C88A3430C68E36000BF00BF00BF00BF05
:100E400000BF00BF00BF00BF00BF00BF00BF00BFAA
:100E500000BF00BF00BF00BF00BF00BF00BF9DF8C4
:100E600002305B061B0E8DF80230431CD8B21828E6
:100E7000AADB0B68DB688C88A3430C68E36018BDB1
:100E800003B5002052E09DF8012002F080022AB351
:100E900000BF0A68D2688B881A430B68DA6000BF0B
:100EA00000BF00BF00BF00BF00BF00BF00BF00BF4A
:100EB00000BF00BF00BF00BF00BF00BF00BF00BF3A
:100EC00000BF00BF00BF00BF00BF00BF00BF0A6877
:100ED000D2688B889A430B68DA601FE000BF0A680B
:100EE000D2688B881A430B68DA600A68D2688B88EC
:100EF0009A430B68DA6000BF00BF00BF00BF00BFAD
:100F000000BF00BF00BF00BF00BF00BF00BF00BFE9
:100F100000BF00BF00BF00BF00BF00BF9DF80120A1
:100F20005206120E8DF80120421CD0B20828AADB0E
:100F3000082052E09DF8002002F080022AB300BF92
:100F40000A68D2688B881A430B68DA6000BF00BF5A
:100F500000BF00BF00BF00BF00BF00BF00BF00BF99
:100F600000BF00BF00BF00BF00BF00BF00BF00BF89
:100F700000BF00BF00BF00BF00BF00BF0A68D2684B
:100F80008B889A430B68DA601FE000BF0A68D2685A
:100F90008B881A430B68DA600A68D2688B889A4398
:100FA0000B68DA6000BF00BF00BF00BF00BF00BF1A
:100FB00000BF00BF00BF00BF00BF00BF00BF00BF39
:100FC00000BF00BF00BF00BF00BF9DF80020520659
:100FD000120E8DF80020421CD0B21028AADB10207F
:100FE00052E09DF8022002F080022AB300BF0A6896
:100FF000D2688B881A430B68DA6000BF00BF00BF5D
:1010000000BF00BF00BF00BF00BF00BF00BF00BFE8
:1010100000BF00BF00BF00BF00BF00BF00BF00BFD8
:1010200000BF00BF00BF00BF00BF0A68D2688B8846
:101030009A430B68DA601FE000BF0A68D2688B88A9
:101040001A430B68DA600A68D2688B889A430B6887
:10105000DA6000BF00BF00BF00BF00BF00BF00BF1D
:1010600000BF00BF00BF00BF00BF00BF00BF00BF88
:1010700000BF00BF00BF00BF9DF802205206120E45
:101080008DF80220421CD0B21828AADB0CBD704794
:1010900010B51348006840F0010011490860084687
:1010A0004068104908400E494860084600680E49EB
:1010B00008400B4908600846006820F4802008605A
:1010C0000846406820F4FE0048604FF41F00886026
:1010D000FFF747FD4FF000600449086010BD0000B5
:1010E000001002400000FFF8FFFFF6FE08ED00E0F0
:1010F00000B9704700214FF0E022116111464861AC
:10110000002191610521116100BF4FF0E0210969C3
:1011100001F480310029F8D000BFEAE710B503469A
:1011200008E0074800684FF47A71B0FBF1F42046FC
:10113000FFF7DEFF181EA3F10103F2D110BD00007E
:101140000000002010B50121880700F07EF828B1CA
:101150000121880700F06AF800F0D6F910BD1FB52C
:10116000044601210846FFF7DBFC04EB8400012163
:10117000C1EB400080B2ADF8080041F61F40ADF869
:1011800004000020ADF80A00ADF8060001A94FF0F8
:10119000804000F075F801221146900700F066F8D3
:1011A0001C208DF8000002208DF8010001208DF830
:1011B00002008DF803006846FFF76EFC01218807E6
:1011C00000F037F81D20FFF75BFC1FBD3EB504465D
:1011D00001210220FFF7A4FC04EB84000121C1EBF4
:1011E000400080B2ADF8040041F61F40ADF80000A9
:1011F0000020ADF80600ADF802006946074800F08F
:101200003FF801221146054800F030F8012103485B
:1012100000F00FF81D20FFF733FC3EBD0004004036
:10122000002001490880704724040040CA4302821C
:10123000704721B1028842F00102028004E0028876
:101240004FF6FE731A400280704730B50246002008
:1012500000230024158A05EA0103958905EA0104A3
:1012600013B10CB1012000E0002030BD1AB1838918
:101270000B43838102E083898B43838170470000A5
:10128000002202881D4B98420ED01D4B98420BD075
:10129000B0F1804F08D01B4B984205D01A4B9842B2
:1012A00002D01A4B984204D14FF68F731A404B88E4
:1012B0001A43174B984207D0164B984204D04FF66A
:1012C000FF431A40CB881A4302808B8883850B88A2
:1012D00003850A4B98420BD0094B984208D00E4B1D
:1012E000984205D00D4B984202D00D4B984201D147
:1012F0000B7A03860123838270470000002C014093
:10130000003401400004004000080040000C004090
:101310000010004000140040004001400044014023
:101320000048014000B585B000211748FFF7C1F81B
:1013300008B905B000BD6A4600211348FFF746F919
:101340009DF80800F0B940F27F310098884203D13F
:1013500003200E49087015E040F23F3100988842A2
:1013600005D100200949087000F0CEF80AE040F2EB
:1013700002310098884205D19DF80C00034908709D
:10138000FFF74EFF00BFD4E70064004014000020C8
:1013900000BFFEE702E008C8121F08C1002AFAD108
:1013A00070477047002001E001C1121F002AFBD1E5
:1013B0007047000008B501210820FFF7C1FB03209A
:1013C0008DF802004FF40070ADF8000048208DF851
:1013D000030069460148FFF756FA08BD000C0140BA
:1013E000002400F069F851E04FF400712848FFF73D
:1013F000D5FA88BB0120FFF791FE4FF40071244815
:10140000FFF7CCFA002839D12248007830B1012802
:101410000AD0022818D0032823D121E000F07CF85C
:101420000F20FFF77BFE1CE01B48008846F2A71147
:10143000884206DC00F032F80020174908800124B9
:1014400001E000F069F80CE0012C06D11248008898
:10145000B0F5967F01DC04E004E000F05DF800E008
:1014600000BF0BE00B480078012807D10A4800882C
:1014700046F2A711884201DD00F04EF8012C05D19B
:1014800005480088B0F5967F00DD0024ACE7000039
:10149000000C0140140000202404004010B502207C
:1014A000034908700221034800F062F810BD0000F3
:1014B000140000206800002038B500240020042318
:1014C000032211460090FFF703F800200D4908722F
:1014D000487200BF05E000210A480B300155601C2E
:1014E000C4B2082CF7DBFFF765FA00F00DF85020C6
:1014F000FFF735FE41F28830FFF768FEFFF75AFF2D
:1015000038BD00006800002010B502480078FEF7E2
:1015100069FE10BD1400002070B5002400201149A0
:10152000087040F23F3010490860002048600820F1
:1015300088723F20C8723F210B48017301460B4857
:10154000FFF7BCF8054601E0601C84B22946074855
:10155000FFF748F9012803D040F6FF708442F3DB1F
:1015600070BD0000140000206800002000640040EE
:101570002DE9F04104460E46002540F21F30206060
:10158000002060600820A0720220E07226732146CD
:101590000C48FFF793F8074601E0681C85B239460E
:1015A0000848FFF71FF9012803D040F6FF70854275
:1015B000F3DB40F6FF70854202DB0020BDE8F081DE
:1015C0000120FBE700640040E8150008000000204F
:1015D00068000000941300085016000868000020FE
:1015E00018040000A413000800A24A040000000030
:1015F00000000000010203040607080900000000C3
:101600000008014000040000000801400002000042
:101610000008014000010000000C014000800000B3
:10162000000C014000400000000C014000200000C0
:10163000000C014000100000000801400100000003
:101640000008014002000000070E1C381C0E0700B5
:04000005080000ED02
:00000001FF
