:020000040800F2
:10000000600B002001010008952D0008B5290008AB
:100010002D2D0008E90200086136000800000000EC
:100020000000000000000000000000003D2E00085D
:100030002906000800000000D12D0008013000084A
:100040001B0100081B0100081B0100081B01000820
:100050001B0100081B0100081B0100081B01000810
:100060001B0100081B0100081B01000875040008A3
:100070001B0100081B010008850400089504000806
:100080001B0100081B0100086D0100081B0100088E
:100090001B0100081B0100081B0100081B010008D0
:1000A0001B0100080D3100081B0100081B0100089E
:1000B0001B0100081B0100081B0100081B010008B0
:1000C0001B0100081B0100081B0100081B010008A0
:1000D0001B010008513600081B0100081B01000825
:1000E0001B0100081B0100081B010008DFF80CD0F1
:1000F00000F02AF80048004789360008600B00200D
:100100000648804706480047FEE7FEE7FEE7FEE7B1
:10011000FEE7FEE7FEE7FEE7FEE7FEE7B530000894
:10012000ED00000840EA01039B0703D009E008C97D
:10013000121F08C0042AFAD203E011F8013B00F8AC
:10014000013B521EF9D27047064C074D06E0E068AD
:1001500040F0010394E8070098471034AC42F6D30E
:10016000FFF7C8FF303700085037000810B50248C5
:1001700000F0A9FC10BD00007400002070B504461A
:1001800000252068806800F00100F0B120688068D8
:1001900020F001002168886001F06CFA05460EE04D
:1001A00001F068FA401B022809D9A06A40F010004B
:1001B000A062E06A40F00100E062012070BD2068AA
:1001C000806800F001000028EAD10020F6E770B551
:1001D00005466C6AA06A00F05000E0B9A06A40F4DD
:1001E0000070A0622068806800F46020B0F5602F85
:1001F0000DD1E06858B9A06A20F48070A062A06AAE
:1002000000F4805018B9A06A40F00100A0622046B6
:1002100000F04AFC03E0206A016B2846884770BD65
:1002200070B505466C6AA06A40F04000A062E06AC2
:1002300040F00400E062204600F044FC70BD70B560
:100240000446656A284600F031FC70BD38B50446A6
:100250000025002000902068806800F0010080BB2D
:100260002068806840F001002168886016480068B6
:100270001649B0FBF1F0009002E00098401E00909B
:1002800000980028F9D101F0F5F9054613E001F0D6
:10029000F1F9401B02280ED9A06A40F01000A062BC
:1002A000E06A40F00100E06200BF002084F8240012
:1002B00000BF012038BD2068806800F001000028E0
:1002C000E5D00020F6E700001800002040420F00B3
:1002D00000BFFEE710B50348007A10B1014802F0F4
:1002E000AAFB10BD7802002000BFFEE704E04870C2
:1002F000034A52F820204A600028F8D170470000D5
:100300002800002010B50446207A18B921460120A3
:10031000FFF7ECFF2046D4E9061200F008F820B100
:10032000A06A401CA062012010BD0020FCE770B54F
:1003300004460E461546207848B9AAB23146606B8D
:1003400002F0E8FA08B9012070BD0020FCE700BF08
:1003500000BF0020F8E700002DE9F04307AC94E867
:10036000B010264641634FF0000880F8008002621A
:100370004362C66006EB0509C0F810908563C5634B
:1003800080F8408080F81480C0F82C80C0F830805D
:100390008761C0F81CC0C0F828804FF0010880F8C1
:1003A00008804FF0000880F8098080F80180DFF8AD
:1003B0001080D8F80080C0F80480BDE8F083000009
:1003C0002800002030B505460C4612480288124825
:1003D0000188284602F05AFB05461048028810485A
:1003E0000188204602F052FB04460E480088A842CD
:1003F00002DA0C48008800E028460A4908800A48CA
:100400000088A04202DA0848008800E02046064939
:10041000088030BD500000204E0000205400002015
:10042000520000205E00002060000020F0B504466D
:100430000E46059D002000272F6000211F6015E05B
:10044000B71A8F4204D914F801C02F6867442F608F
:10045000675CAA2F00D11960675CBB2F05D14F1EC6
:10046000D3F800C0BC4500D10120491CB142E7D3FC
:10047000F0BD000010B5024800F006FE10BD0000FF
:10048000A400002010B5024800F0FEFD10BD0000E1
:10049000AC01002010B5024800F0F6FD10BD0000D0
:1004A0006801002030B590F840500124AC40C56B85
:1004B0006C60046863604468102C04D10468A26016
:1004C0000468E16003E00468A1600468E26030BD94
:1004D00000200149087070474C000020FEB5054619
:1004E0002C462F460020029001902448806B18284B
:1004F00003D018202149C8633DE0204890F840000F
:1005000030B118201D49C863002081F84000FEBDAD
:1005100001A802AB0422182100903846FFF786FF9D
:1005200006466EB9F87D00909DF80000AA2803D118
:1005300017201249C86302E018201049C86319E067
:10054000029830B10D490298C863012081F840003B
:1005500010E018200949C86360690199884209D1EF
:10056000A278E178064802F04FFA204600F0EEF853
:100570000120CCE700BF0020C9E7000034020020C2
:100580007802002008B50020009069461D4800F060
:100590005FF830B1BDF80210BDF80000FFF712FFA0
:1005A0002FE01948007860B30020174908701748F9
:1005B0000088ADF8000016480088ADF80200012060
:1005C000144908706946144800F072F810B9012007
:1005D0001249087000200F4908701048007820B1B7
:1005E0000F480068401C0E4908600E48007818B19A
:1005F000042002F003FC02E0032002F0FFFB02F003
:100600000BFC08BD44070020630000205E000020B2
:1006100060000020700000204003002062000020E5
:100620006400002071000020704710B5044609B92D
:10063000002010BDE1606260A36000202061606165
:1006400001206076002020760120207000BFF0E7B6
:10065000F0B502460B460021002500241BB110789E
:1006600008B1507E08B10020F0BD1C46D2E90270EE
:10067000166906FB0705002102E0685C6054491C0E
:1006800090688842F9D81069401C1061566810695A
:10069000B04201D300201061D2E90406B04201D17A
:1006A000012000E000205076002010760120DBE7DA
:1006B000F0B502460B460021002400251BB110783E
:1006C00008B1107E08B10020F0BD1D46D2E90270CD
:1006D000566906FB0704002102E0685C6054491C6F
:1006E00090688842F9D85069401C5061566850693A
:1006F000B04201D300205061D2E90406B04201D1DA
:10070000012000E000201076002050760120DBE779
:1007100010B502460023002002E0145C2344401C74
:100720008842FAD3184610BD10B50648007800B1CB
:1007300010BD002004490860022002F05FFB00BFEA
:10074000F6E700004C0000204800002070B5044689
:100750000125A07830B1012805D0022806D0032851
:100760003BD118E03BE0FFF7DFFF38E0A06801284D
:1007700002D002280CD103E001201A49087008E0D9
:10078000002018490870FFF7A3FEFFF7CDFF00E037
:1007900000BF00BF23E02089134908806089134906
:1007A0000880A08912490880E08912490880208ABF
:1007B00011490880608A114908800F4909880F4A49
:1007C0001288914202DA0C49098801E00B49098834
:1007D0003C3988B202F0D2FB01E0002500BF00BF27
:1007E000284670BD71000020500000204E000020FF
:1007F0005400002052000020560000205800002025
:1008000070B506461148406910490969441A002527
:1008100000200F490870002C03DA0C48406820447F
:1008200000E020460B49088000E06D1C0948001DCF
:1008300000EB85010548FFF70BFF0028F5D11C22CE
:1008400004493046FFF76EFC70BD000040030020F5
:10085000620000200C03002030B587B004460D462E
:10086000287805281CD2DFE800F0030405091200EF
:1008700017E016E00D480068206012E06846FFF7B8
:10088000BFFF1C2269462046FFF74CFC09E0684682
:10089000FFF7B6FF1C2269462046FFF743FC00E045
:1008A00000BF00BF012007B030BD0000480000209D
:1008B0007047000010B502461F4B0868984207D0E9
:1008C0001E4B0868984203D01D4B0868984200D11F
:1008D00000BF00BF92F82400012801D1022010BD02
:1008E000012082F8240000BF8868012806D1106822
:1008F000406840F040001368586005E010684068A8
:1009000020F0400013685860D1E9000318431368D1
:100910005B680C4C2340184313685860C868136820
:10092000586208691368986200BF002082F82400AA
:1009300000BF00BFD3E700000002800000024000BB
:100940000002C000E0FD3FFF38B502460023002052
:10095000009000BF92F82400012801D1022038BD88
:10096000012082F8240000BF4868072812D21068CE
:10097000406B0C79641E04EB84051F24AC40A0433B
:100980000D796D1E05EB85050C68AC40204314689D
:10099000606327E048680D2812D21068006B0C795C
:1009A000E41F04EB84051F24AC40A0430D79ED1F28
:1009B00005EB85050C68AC4020431468206311E00A
:1009C0001068C06A0C790D3C04EB84051F24AC4010
:1009D000A0430D790D3D05EB85050C68AC40204327
:1009E0001468E06208680A2812D31068C0680C789E
:1009F0000A3C04EB44050724AC40A0430D780A3DB3
:100A000005EB45058C68AC4020431468E0600FE0BE
:100A1000106800690C7804EB44050724AC40A0433F
:100A20000D7805EB45058C68AC40204314682061C7
:100A30000868102802D00868112827D1174C1068C0
:100A4000A0421ED11068806800F40000F0B9106860
:100A5000806840F400001468A0600868102815D170
:100A60000F4800680F4CB0FBF4F000EB8000400032
:100A7000009002E00098401E009000980028F9D1F4
:100A800004E0906A40F020009062012300BF002043
:100A900082F8240000BF184661E7000000240140EE
:100AA0001800002040420F007047000010B50446B7
:100AB00003480068401C0249086002F0C1F910BDFB
:100AC00000000020704710B504462068406800F020
:100AD000200020282FD12068006800F002000228A2
:100AE00029D1A06A00F0100018B9A06A40F4007083
:100AF000A0622068806800F46020B0F5602F13D1F8
:100B0000E06888B92068406820F0200021684860CB
:100B1000A06A20F48070A062A06A00F4805018B926
:100B2000A06A40F00100A0622046FFF7BDFF6FF011
:100B30001200216808602068406800F0800080286A
:100B40003BD12068006800F00400042835D1A06A79
:100B500000F0100018B9A06A40F40050A0622068AC
:100B6000806800F4E040B0F5E04F0DD020684068A8
:100B700000F48060D0B92068806800F46020B0F58F
:100B8000602F13D1E06888B92068406820F08000A9
:100B900021684860A06A20F48050A062A06A00F436
:100BA000807018B9A06A40F00100A0622046FFF7EB
:100BB0007FFE6FF00C00216808602068406800F03C
:100BC000400040280FD12068006800F0010050B1BB
:100BD000A06A40F48030A062204600F0A7F86FF0D1
:100BE00001002168086010BD2DE9F041044600278E
:100BF00000250026A84614B90120BDE8F081A068B0
:100C000010B1606900B100BFA06A30B90020E06295
:100C100084F82400204600F0C7F82046FFF7AEFA1B
:100C20000746A06A00F01000002873D1002F71D190
:100C3000A06A20F4885040F00200A062E169606878
:100C40000843E16840EA41000643A068B0F5807FB0
:100C500002D0A068012802D14FF4807000E000208B
:100C600005436069012811D1E06838B9A069401EC8
:100C70004FF4006141EA4030054307E0A06A40F0CC
:100C80002000A062E06A40F00100E0622068406855
:100C900020F4694028432168486020688068214921
:100CA0000840304321688860A068B0F5807F02D09A
:100CB000A068012802D14FF4807000E00020B0F558
:100CC000807F03D1208A401E4FEA00582068C06A06
:100CD00020F4700040EA08002168C862206880683B
:100CE00011490840B04208D10020E062A06A20F01B
:100CF000020040F00100A06211E0A06A20F00200B2
:100D000040F01000A062E06A40F00100E0620127BC
:100D100005E0FFE7A06A40F01000A0620127384616
:100D20006BE70000FDF7E1FFFE0E1FFF10B5044664
:100D300019480068401C1849086018480078A0B19C
:100D400017490988174A1288914202DA144909881A
:100D500001E0144909883C3988B240F6FF7102F07D
:100D6000E5F800200D49087015E00D4800880D4A8F
:100D70001288904202DD0A48008801E00948008894
:100D80003C3081B2002002F0D1F80B2000F020FDB1
:100D900001200249087010BD040000200800002056
:100DA000560000205800002010B586B004462149A6
:100DB000206888423CD100BF1F48806940F4007021
:100DC0001D4988610846806900F40070019000BFE9
:100DD00000BF062002900320039002A9174800F0EC
:100DE000BBFA1748174908600020486000211548E1
:100DF00081608021C1604900016189004161202139
:100E000081614FF44051C16100F00CFA18B18B219F
:100E10000DA002F027FC00BF0A482062446200BF18
:100E200000221146122000F0E0FC122000F0D0FC5D
:100E300006B010BD0024014000100240000801402F
:100E400008000240A40000202E2E2F5372632F6151
:100E500064632E63000000002DE9F04104460D4656
:100E60001646002757492068884203D05649206813
:100E7000884205D15348001D006800F4702000E04E
:100E8000002000287ED100BF94F82400012802D160
:100E90000220BDE8F081012084F8240000BF204634
:100EA000FFF7D4F90746002F6DD1A06A40F6016123
:100EB000884340F48070A06243492068884209D189
:100EC0004048001D006800F4702008B9012002E0CD
:100ED000002000E0012078B1A06A20F48010A06218
:100EE0002068406800F4806000B3A06A20F40050DD
:100EF00040F48050A06219E0A06A40F48010A06223
:100F000030492068884203D02F492068884205D1A3
:100F10002C48001D006800F4806000E0002028B12B
:100F2000A06A20F4005040F48050A062A06A00F44F
:100F3000805020B1E06A20F00600E06201E000206D
:100F4000E06200BF002084F8240000BF1F48216A2F
:100F500088621F48216AC8621E48216A08636FF0D0
:100F60000200216808602068806840F48070216871
:100F70008860226802F14C0133462A46206A00F05C
:100F800089F901E01AE014E02068806800F460202C
:100F9000B0F5602F06D12068806840F4A000216879
:100FA00088600CE02068806840F4801021688860C8
:100FB00005E000BF002084F8240000E00127384647
:100FC00067E700000024014000280140CF0100082D
:100FD0003F0200082102000870B50446002594F87D
:100FE0002100022803D00420A063012548E02068E6
:100FF000006820F00E00216808602068006820F07A
:101000000100216808601F492068884201D1012041
:1010100026E01C4914312068884201D110201FE0CD
:10102000184928312068884201D1801518E01549F7
:101030003C312068884201D1801411E011495031BF
:101040002068884202D14FF4803009E00D496431B4
:101050002068884202D14FF4801001E04FF0807088
:10106000084908394860012084F8210000BF0020A9
:1010700084F8200000BF606B10B12046616B884788
:10108000284670BD0800024070B50446E06B056854
:101090002068066894F84010042088402840002802
:1010A00046D006F00400002842D02068006800F016
:1010B000200028B92068006820F00400216808603A
:1010C00057492068884201D1042027E0544914314F
:1010D0002068884201D1402020E051492831206811
:1010E000884201D1001519E04D493C312068884201
:1010F00002D14FF4804011E04949503120688842C4
:1011000002D14FF4802009E04549643120688842CB
:1011100002D14FF4800001E04FF08060404908396F
:101120004860E06A00287AD02046E16A884776E085
:1011300094F84010022088402840A0B306F0020036
:1011400088B32068006800F0200040B9206800687B
:1011500020F00A0021680860012084F8210030494D
:101160002068884201D1022028E02D4914312068EE
:10117000884201D1202021E0294928312068884275
:1011800001D140151AE026493C312068884202D13D
:101190004FF4005012E0224950312068884203D1B8
:1011A0004FF400300AE017E01D496431206888429E
:1011B00002D14FF4001001E04FF0007018490839D7
:1011C000486000BF002084F8200000BFA06A30B350
:1011D0002046A16A884722E094F840100820884001
:1011E0002840E0B106F00800C8B12068006820F08F
:1011F0000E002168086094F8401001208840E16BDF
:1012000048600120A06384F8210000BF002084F81A
:10121000200000BF206B10B12046216B884770BDB5
:10122000080002400146002209B901207047184B0E
:101230000868C01A1423B0FBF3F080000864144857
:101240000838C863022081F821000868026843F664
:10125000F0708243D1E901031843CB6818430B694E
:1012600018434B6918438B691843CB6918430243F1
:101270000868026000208862C86208634863886367
:10128000012081F82100002081F8200000BFCDE777
:10129000080002402DE9F04104460D4616461F465F
:1012A0004FF0000800BF94F82000012802D102206E
:1012B000BDE8F081012084F8200000BF94F82100EF
:1012C00001282CD1022084F821000020A06320688E
:1012D000006820F00100216808603B46324629463C
:1012E0002046FFF7DFF8E06A30B12068006840F080
:1012F0000E00216808600BE02068006820F0040000
:10130000216808602068006840F00A0021680860D1
:101310002068006840F001002168086006E000BF16
:10132000002084F8200000BF4FF002084046BFE7CD
:1013300070B5044600F09EF906462546681C10B1BB
:1013400004480078054400BF00F094F9801BA842CF
:10135000FAD370BD140000202DE9F847034600249D
:10136000002000258446002700226EE14FF001088E
:1013700008FA02F4D1F8008008EA0400A0427DD106
:10138000DFF8D0A2D1F80480A8EB0A09D0453AD002
:1013900014DCB8F1030F50D009DCB8F1000F31D0E4
:1013A000B8F1010F1CD0B8F1020F49D120E0B8F11B
:1013B000110F18D0B8F1120F42D11EE0B9F5881FF5
:1013C00025D006DCB9F5803F20D0B9F5801F37D194
:1013D0001AE0B9F5001F18D0B9F5041F30D117E095
:1013E000D1F80CC02DE0D1F80C8008F1040C28E0F5
:1013F000D1F80C8008F1080C23E0D1F80C8008F13A
:101400000C0C1EE000BF00BF00BF00BF00BF00BF4C
:10141000D1F80880B8F1000F02D14FF0040C0BE0B6
:10142000D1F80880B8F1010F03D14FF0080C1C610E
:1014300002E04FF0080C5C6103E04FF0000C00E0AC
:1014400000BF00BFFF2801D8984601E003F104085F
:101450004646FF2802D84FEA820803E0A2F10808B6
:101460004FEA88084746D6F800804FF00F0909FA7E
:1014700007F928EA09080CFA07F900E088E048EAC9
:101480000908C6F80080D1F8048008F08058B8F147
:10149000805F7DD100BFDFF8C081D8F8188048F0A8
:1014A0000108DFF8B491C9F81880C846D8F8188048
:1014B00008F00108CDF8008000BF00BF4FEAB9383E
:1014C0004FEA920958F829504FEA82784FEA187982
:1014D0004FF00F0808FA09F825EA0805DFF87C81C3
:1014E000434502D14FF0000816E0DFF87481434510
:1014F00002D14FF001080FE0DFF86881434502D1C7
:101500004FF0020808E0DFF86081434502D14FF058
:10151000030801E04FF004084FEA82794FEA197995
:1015200008FA09F848EA0505DFF840814FEA920910
:1015300048F82950D1F8048008F48038B8F5803F85
:101540000AD1DFF82C81D8F8008048EA0008DFF8DB
:101550002091C9F8008009E0DFF81481D8F80080F4
:1015600028EA0008DFF80891C9F80080D1F8048063
:1015700008F40038B8F5003F10D1DFF8F48008F126
:101580000408D8F8008048EA0008DFF8E49000E09A
:101590005AE009F10409C9F800800DE0DFF8D080B5
:1015A00008F10408D8F8008028EA0008DFF8C090A5
:1015B00009F10409C9F80080D1F8048008F4801802
:1015C000B8F5801F0ED1DFF8A88008F10808D8F818
:1015D000008048EA0008DFF8989009F10809C9F886
:1015E00000800DE0DFF8888008F10808D8F8008056
:1015F00028EA0008DFF8789009F10809C9F80080A6
:10160000D1F8048008F40018B8F5001F0ED1DFF8F7
:10161000608008F10C08D8F8008048EA0008DFF87C
:10162000509009F10C09C9F800800DE0DFF8408006
:1016300008F10C08D8F8008028EA0008DFF830909C
:1016400009F10C09C9F80080521C102AFFF48EAE73
:10165000BDE8F887000011100010024000080140AA
:10166000000C01400010014000140140080001403E
:101670000004014001480068704700000C00002091
:101680000348006803490978084401490860704725
:101690000C0000201400002010B50848006840F03D
:1016A000100006490860032000F0DEF8002000F07A
:1016B00007F800F02BF8002010BD000000200240C9
:1016C00070B504460E4800784FF47A71B1FBF0F023
:1016D0000C490968B1FBF0F5284600F0E8FC08B1B8
:1016E000012070BD102C07D200222146501E00F0B0
:1016F0007CF80548046001E00120F2E70020F0E7F3
:1017000014000020180000201000002008B500BFC1
:101710002648806940F001002449886108468069B4
:1017200000F00100009000BF00BF00BF0846C06984
:1017300040F08050C8610846C06900F080500090B9
:1017400000BF00BF042000F08FF8002211466FF0A8
:101750000B0000F04AF8002211466FF00A0000F07A
:1017600044F8002211466FF0090000F03EF8002214
:101770001146501F00F039F800221146101F00F0EA
:1017800034F800221146901E00F02FF80022114676
:10179000501E00F02AF800BF0549486820F0E060BC
:1017A00040F00070486000BF08BD0000001002401B
:1017B0000000014000BF00F01F0201219140034AD8
:1017C000430942F8231000BF7047000080E100E0A9
:1017D00000BF00F01F02012191404209920002F176
:1017E000E022C2F8001100BF70472DE9F05F80468B
:1017F0000D461646002701F0CFFA074639462A461D
:10180000334601F00700C0F1070ABAF1040F02D90C
:101810004FF0040A01E0C0F1070AD14600F1040AC2
:10182000BAF1070F02D24FF0000A01E0A0F1030A5B
:10183000D4464FF0010A0AFA09FAAAF1010A0AEAA3
:10184000020A0AFA0CFA4FF0010B0BFA0CFBABF18F
:10185000010B0BEA030B4AEA0B042146404601F058
:10186000A3FABDE8F09F000000BF00F00702064B9E
:1018700019684FF6FF031940044B0B4343EA02215A
:10188000014B196000BF70470CED00E00000FA0545
:10189000F8B5044600260025207800F00100002855
:1018A0006BD000274348C06900F0805070B900BF7A
:1018B0004048C06940F080503E49C8610846C06950
:1018C00000F08050009000BF00BF01273A48006838
:1018D00000F48070B0B93848006840F48070364930
:1018E0000860FFF7C7FE064606E0FFF7C3FE801B51
:1018F000642801D90320F8BD2F48006800F48070E7
:101900000028F2D02B48006A00F440752DB3A0885F
:1019100000F44070A84220D02648006A20F44075A8
:10192000012026490860002008602248056205F071
:10193000010090B1FFF79EFE064608E0FFF79AFE11
:10194000801B41F28831884201D90320D3E719482E
:10195000006A00F002000028F0D01648006A20F467
:1019600040706168084313490862012F04D108469A
:10197000C06920F08050C86100BF207800F00200EC
:10198000022807D10B48406820F44040A168084372
:1019900008494860207800F01000102807D1054859
:1019A000406820F48000E168084302494860002054
:1019B000A1E70000001002400070004040044242D5
:1019C00070B504460D4600266248006800F0070026
:1019D000A8420ED25F48006820F0070028435D4906
:1019E00008600846006800F00700A84201D0012006
:1019F00070BD207800F00200022807D156484068E8
:101A000020F0F000A168084353494860207800F0B6
:101A1000010000285DD06068012806D14E480068AA
:101A200000F4003090B90120E2E76068022806D196
:101A30004948006800F0007040B90120D8E74648E6
:101A4000006800F0020008B90120D1E74248406870
:101A500020F00300616808433F494860FFF70AFE31
:101A600006466068012810D108E0FFF703FE801BDE
:101A700041F28831884201D90320B9E736484068ED
:101A800000F00C000428F0D123E06068022810D197
:101A900008E0FFF7EFFD801B41F28831884201D951
:101AA0000320A5E72C48406800F00C000828F0D17E
:101AB0000FE008E0FFF7DEFD801B41F2883188422D
:101AC00001D9032094E72448406800F00C00002866
:101AD000F0D12048006800F00700A8420ED91D4848
:101AE000006820F0070028431A490860084600688B
:101AF00000F00700A84201D0012079E7207800F02B
:101B00000400042807D11448406820F4E060E1682C
:101B1000084311494860207800F00800082808D1DF
:101B20000D48406820F46050216940EAC1000A492C
:101B3000486000F03DF808494968C1F30311074ABD
:101B4000515CC840064908600020FFF7B9FD00203D
:101B50004EE700000020024000100240C836000896
:101B6000180000200148006870470000180000209D
:101B700000B5FFF7F7FF04494968C1F30221034AA2
:101B8000515CC84000BD000000100240D83600087B
:101B900000B5FFF7E7FF04494968C1F3C221034AD2
:101BA000515CC84000BD000000100240D83600085B
:101BB000F0B585B00FF26C0C9CE8E01001A8A0E82D
:101BC000E0101CA52D6800950021002200230024B0
:101BD0000020194D696801F00C05F5B1042D02D003
:101BE000082D19D101E0154819E001ADC1F3834674
:101BF000AC5D01F4803555B10F4D6D68C5F34045BE
:101C00001DF805200D4D6543B5FBF2F302E00C4DC8
:101C100004FB05F3184602E000BF084800BF00BF00
:101C200005B0F0BD02030405060708090A0B0C0DF8
:101C30000E0F1010010200000010024000127A0086
:101C400000093D00F8B504460025207800F00100A9
:101C5000002878D0F848406800F00C0004280CD028
:101C6000F548406800F00C00082811D1F24840689F
:101C700000F48030B0F5803F0AD1EF48006800F4EE
:101C8000003000285FD0606800285CD10120F8BDDA
:101C900000BF6068B0F5803F06D1E748006840F4B7
:101CA0008030E549086028E0606858B9E24800687B
:101CB00020F48030E04908600846006820F4802065
:101CC00008601AE06068B0F5A02F0BD1DA48006810
:101CD00040F48020D84908600846006840F480300D
:101CE00008600AE0D448006820F48030D2490860D7
:101CF0000846006820F48020086000BF606888B152
:101D0000FFF7B8FC054606E0FFF7B4FC401B64286B
:101D100001D90320BBE7C848006800F40030002860
:101D2000F2D010E0FFF7A6FC054606E0FFF7A2FCA4
:101D3000401B642801D90320A9E7BF48006800F4CC
:101D400000300028F2D1207800F00200022857D19C
:101D5000B948406800F00C0050B1B748406800F046
:101D60000C00082818D1B448406800F4803098B9B5
:101D7000B148006800F0020020B12069012801D0BC
:101D8000012084E7AC48006820F0F800616940EA6F
:101D9000C100A949086033E02069E8B10120A749E2
:101DA0000860FFF767FC054606E0FFF763FC401B91
:101DB000022801D903206AE79F48006800F002006A
:101DC0000028F2D09C48006820F0F800616940EAE1
:101DD000C1009949086013E0002098490860FFF7A6
:101DE00049FC054606E0FFF745FC401B022801D9E7
:101DF00003204CE79048006800F002000028F2D170
:101E0000207800F0080008282DD1A069B8B1012081
:101E10008B490860FFF72EFC054606E0FFF72AFC19
:101E2000401B022801D9032031E78348406A00F0B3
:101E300002000028F2D0012000F0CCFF13E00020C7
:101E40007F490860FFF716FC054606E0FFF712FC25
:101E5000401B022801D9032019E77748406A00F0A7
:101E600002000028F2D1207800F00400042873D189
:101E700000267148C06900F0805070B900BF6E48FC
:101E8000C06940F080506C49C8610846C06900F0E4
:101E90008050009000BF00BF01266A48006800F42F
:101EA0008070B0B96748006840F480706549086088
:101EB000FFF7E0FB054606E0FFF7DCFB401B64286C
:101EC00001D90320E3E65F48006800F48070002831
:101ED000F2D000BFE068012806D15748006A40F000
:101EE00001005549086227E0E06858B95248006A85
:101EF00020F00100504908620846006A20F0040002
:101F0000086219E0E06805280BD14B48006A40F0F0
:101F10000400494908620846006A40F0010008626E
:101F20000AE04548006A20F001004349086208467B
:101F3000006A20F00400086200BFE068A0B1FFF76B
:101F400099FB054609E0FFF795FB401B41F28831FC
:101F5000884202D903209AE622E03748006A00F05E
:101F600002000028EFD012E0FFF784FB054608E0EE
:101F7000FFF780FB401B41F28831884201D90320E2
:101F800085E62D48006A00F002000028F0D1012EFD
:101F900005D12948C06920F080502749C86100BF99
:101FA000E069C8B32448406800F00C00082860D0FD
:101FB000E069022848D1002020490866FFF75AFB53
:101FC000054606E0FFF756FB401B022801D9032017
:101FD0005DE61948006800F000700028F2D1206A20
:101FE000B0F5803F07D11448406820F40030A16864
:101FF000084311494860D4E9080108430E4949687B
:1020000021F4741108430C49486001200B4908660B
:10201000FFF730FB054607E02DE0FFF72BFB401BE9
:10202000022801D9032032E60348006800F000705E
:102030000028F2D01FE000000010024000004242E1
:10204000800442420070004000200C490866FFF7FF
:1020500011FB054606E0FFF70DFB401B022801D9E6
:10206000032014E60648006800F000700028F2D152
:1020700001E001200BE6002009E6000000004242DA
:1020800000100240042808D14FF0E021096941F016
:1020900004014FF0E022116107E04FF0E0210969EF
:1020A00021F004014FF0E02211617047704770B5D4
:1020B00004462546681EB0F1807F01D301200FE061
:1020C000681E4FF0E02148610F214FF0FF3000F013
:1020D0006BFE00204FF0E02188610720086100209E
:1020E00070BD10B5FFF7E2FF10BD704770470246A4
:1020F00000BF92F83C00012801D102207047012066
:1021000082F83C0000BF022082F83D001068406861
:1021100020F0700013685860106840680B6818431E
:10212000136858601068806820F080001368986019
:10213000106880684B68184313689860012082F823
:102140003D0000BF002082F83C0000BF00BFD5E783
:1021500010B504460CB9012010BD94F83D0028B913
:10216000002084F83C00204600F00CF8022084F89F
:102170003D00211D206800F0D1FF012084F83D00C2
:102180000020E9E738B504460D492068884215D19A
:1021900000BF0C48806940F400600A498861084625
:1021A000806900F40060009000BF00BF00220121A0
:1021B0001920FFF71AFB1920FFF70AFB38BD0000B2
:1021C000002C01400010024001460868C06840F041
:1021D00001000A68D0600868006840F001000A68E1
:1021E0001060002070472DE9F04104460D4600269E
:1021F00000BF94F83C00012802D10220BDE8F08124
:10220000012084F83C0000BF022084F83D002068D3
:10221000866826F0770626F47F4620688660286860
:1022200050283BD00CDC202860D004DC002853D0A0
:10223000102865D155E030285DD0402860D141E0BC
:10224000602835D070280DD0B0F5805F03D0B0F590
:10225000005F55D115E02068806820F007002168F4
:1022600088604EE0D5E902136A68206800F090FFAC
:102270002068866826F0770646F077062068866034
:102280003FE0D5E902136A68206800F081FF20680A
:10229000806840F480402168886032E0EA686968BC
:1022A000206800F08BFF5021206800F07DFF28E0BF
:1022B000EA686968206800F096FF6021206800F0F5
:1022C00073FF1EE0EA686968206800F077FF40212C
:1022D000206800F069FF14E00021206800F064FF2E
:1022E0000FE01021206800F05FFF0AE02021206845
:1022F00000F05AFF05E03021206800F055FF00E0B3
:1023000000BF00BF012084F83D0000BF002084F81A
:102310003C0000BF00BF71E7704710B5044620685D
:102320000069C0F34000D8B12068C068C0F3400025
:10233000B0B16FF0020021680861012020772068A9
:10234000806900F0030018B12046FFF7E5FF05E0C3
:10235000204600F0ADF8204600F0ABF800202077D2
:1023600020680069C0F38000D8B12068C068C0F35D
:102370008000B0B16FF0040021680861022020776E
:102380002068806900F4407018B12046FFF7C4FF50
:1023900005E0204600F08CF8204600F08AF8002086
:1023A000207720680069C0F3C000D8B12068C068F9
:1023B000C0F3C000B0B16FF00800216808610420CC
:1023C00020772068C06900F0030018B12046FFF7AD
:1023D000A3FF05E0204600F06BF8204600F069F806
:1023E0000020207720680069C0F30010D8B1206871
:1023F000C068C0F30010B0B16FF010002168086130
:10240000082020772068C06900F4407018B1204689
:10241000FFF782FF05E0204600F04AF8204600F072
:1024200048F8002020772068006900F0010058B1CA
:102430002068C06800F0010030B16FF00100216831
:102440000861204600F036F820680069C0F3C0102B
:1024500058B12068C068C0F3C01030B16FF0800080
:10246000216808612046FFF740FE20680069C0F33C
:10247000801058B12068C068C0F3801030B16FF090
:10248000400021680861204600F019F820680069C2
:10249000C0F3401058B12068C068C0F3401030B19C
:1024A0006FF02000216808612046FFF71FFE10BD75
:1024B0007047704710B5044600F0F4FC10BD70473B
:1024C000704700002DE9F047044620680568206841
:1024D000C668206847694FF00008C14605F00F083C
:1024E000B8F1000F0AD105F0200038B106F0200045
:1024F00020B1204600F040FFBDE8F087B8F1000FA2
:102500006DD007F0010018B906F49070002866D06D
:1025100005F0010030B106F4807018B1E06B40F0B6
:102520000100E06305F0040030B107F0010018B1CC
:10253000E06B40F00200E06305F0020030B107F00C
:10254000010018B1E06B40F00400E06305F0080002
:1025500030B107F0010018B1E06B40F00800E06313
:10256000E06B68B305F0200028B106F0200010B140
:10257000204600F001FF20684069C0F38019E06B3D
:1025800000F0080010B9B9F1000F22D0204600F089
:10259000C9FE2068406900F04000B0B12068406981
:1025A00020F0400021684861606B50B11748616BB2
:1025B0004863606BFEF710FD10B1606B416B88479C
:1025C0000CE02046FFF77CFF08E02046FFF778FF8D
:1025D00004E02046FFF774FF0020E0638CE705F07D
:1025E000800030B106F0800018B1204600F0FCFFFA
:1025F00082E705F0400030B106F0400018B12046F7
:1026000000F0A0FE78E700BF76E700001332000874
:1026100010B504460CB9012010BDA06900B100E05E
:1026200000BF94F8390028B9002084F8380020460B
:1026300000F028F8242084F839002068C06820F4CD
:1026400000502168C860204600F0EAFE206800695A
:1026500020F49040216808612068406920F02A0039
:10266000216848612068C06840F400502168C86053
:102670000020E063202084F8390084F83A0000202C
:10268000CAE7000010B586B0044633492068884286
:1026900060D100BF3148806940F480402F49886193
:1026A0000846806900F48040019000BF00BF4815D3
:1026B0000290022003900320059002A92848FEF70B
:1026C0004BFE4FF48060029000200390049002A91A
:1026D0002348FEF741FE2348234908600020486054
:1026E0000021214881608021C16000210161416198
:1026F0008161C161FEF796FD18B170211BA000F049
:10270000B1FF00BF18486063446200BF1548143829
:102710001A49086010204860002118488160802113
:10272000C1600021016141618161C161FEF77AFDF3
:1027300018B180210DA000F095FF00BF0F48206365
:10274000446200BF002205212520FFF74EF8252016
:10275000FFF73EF806B010BD0038014000100240FF
:102760000008014058000240680100202E2E2F531F
:1027700072632F75736172742E630000AC010020C8
:1027800077B581B00446154694F83A00202850D118
:10279000029800B115B9012004B070BD00BF94F8D3
:1027A0003800012801D10220F6E7012084F8380022
:1027B00000BF0298A062A5850020E063222084F873
:1027C0003A001D48616B88621C48616BC8621C48F6
:1027D000616B08630020616B486302AE3268236856
:1027E000191D2B46606BFEF755FD00BF00200090C1
:1027F00020680068009020684068009000BF00BF1B
:1028000000BF002084F8380000BF2068C06840F492
:1028100080702168C8602068406940F0010021682C
:1028200048612068406940F040002168486100200C
:10283000B2E70220B0E7000077320008BD3200089E
:10284000273200082DE9F0410746384600F060FDC8
:1028500004462E4850F82400057D2C4850F82400EA
:102860000C3050F82580294850F82400C66B34B944
:10287000264850F824100220FDF738FD0AE02348CE
:1028800050F82400007A28B9204850F8241001207C
:10289000FDF72CFD1D4850F824000C300DB9012324
:1028A00000E0002350F82310B2B23846FFF768FF6B
:1028B000164850F82400016A40468847012809D18B
:1028C000124850F82400C06A401C104951F82410E6
:1028D000C86208E00D4850F82400006B401C0B490A
:1028E00051F824100863094850F82400866307480B
:1028F00050F82400007D08B9012000E000200349C1
:1029000051F824100875BDE8F0810000380000205F
:1029100070470000F7B50446154694F839002028A2
:102920003DD1019800B10DB90120FEBD00BF94F862
:102930003800012801D10220F7E7012084F838008F
:1029400000BF01982062A584E5840020E063212077
:1029500084F839001348216B88621348216BC862E0
:102960001248216B08630020216B486301AE236885
:102970001A1D31682B46206BFEF78CFC6FF040006F
:102980002168086000BF002084F8380000BF20687C
:10299000406940F08000216848610020C5E70220BE
:1029A000C3E70000CB3200080133000827320008DB
:1029B0007047704700BFFEE710B500240472012481
:1029C000447200240473C47244618261016113B9CA
:1029D000054CC46100E0C36100244470034C2468CA
:1029E00044600124047010BDD10200081C000020C6
:1029F00004E04870034A52F820204A600028F8D1C9
:102A0000704700001C00002030B503460C461546F8
:102A1000187818B919460120FFF7EAFFD87AA042C2
:102A200001D1012000E0002098721D73012058722E
:102A30000020187230BD10B50446012060720021DC
:102A4000204600F001F810BD70B504460D46207810
:102A500018B921460120FFF7CBFF607A40B1002072
:102A600060726061E5722069416A284688470CE01F
:102A70006069401C6061A06938B1D4E905018842F1
:102A800003D901202072E069804770BD03468B4264
:102A900001DA08467047934201DD1046FAE718460E
:102AA000F8E7000000B589B0244825490860811581
:102AB000234881600121C160002141614FF4602100
:102AC000C16100201E49486002211D480161FEF7D6
:102AD0008BF818B148211BA000F0C4FD4FF4000092
:102AE000039040F6FF7006900020079001200590AB
:102AF00003A91348FDF7DEFE18B1532111A000F021
:102B0000B1FD0120009001900720029069460C4819
:102B1000FDF71AFF18B15D210AA000F0A3FD022005
:102B20000090019069460648FDF70EFF18B1662136
:102B300004A000F097FD09B000BD00000024014092
:102B4000740000202E2E2F5372632F6164632E6356
:102B50000000000008B500BF1248406940F00100C5
:102B6000104948610846406900F00100009000BF2C
:102B700000BF002211460B20FEF737FE0B20FEF7A8
:102B800027FE002202210E20FEF72FFE0E20FEF768
:102B90001FFE012200210F20FEF727FE0F20FEF767
:102BA00017FE08BD0010024000B585B000BF2848E0
:102BB000806940F01000264988610846806900F06D
:102BC0001000009000BF00BF00BF0846806940F0C1
:102BD000200088610846806900F02000009000BF56
:102BE00000BF00BF0846806940F0040088610846C5
:102BF000806900F00400009000BF00BF00BF0846DD
:102C0000806940F0080088610846806900F008008B
:102C1000009000BF00BF4FF460400190032002907D
:102C200001A90C48FEF798FB49F6F9100190032022
:102C3000029001A90848FEF78FFB4FF6FF70019044
:102C40000320029001A90548FEF786FB05B000BDF0
:102C5000001002400010014000080140000C01403B
:102C600000B587B01848194908604720486000211E
:102C70001648816044F61F61C16000210161416115
:102C800080218161FFF764FA18B1422110A000F0A1
:102C9000E9FC4FF48050039003A90C48FFF7A3FA16
:102CA00018B148210AA000F0DDFC0020019002903C
:102CB00001A90648FFF71BFA18B14F2104A000F044
:102CC000D1FC07B000BD0000002C0140E80000204E
:102CD0002E2E2F5372632F74696D2E630000000037
:102CE00010B50C480C4908604FF4E13048600021F1
:102CF00009488160C16001610C214161002181614D
:102D0000C161FFF785FC18B1452104A000F0AAFCC1
:102D100010BD000000380140280100202E2E2F5346
:102D200072632F75736172742E63000000BFFEE73B
:102D30001FB504460F4B322221460F48FFF73CFED9
:102D400028200E4918220E4BCDE90032CDE90210A1
:102D50000C4B0D4A0D492046FDF7FEFA0C48008F3A
:102D600082B2237D04F10C0050F823100748FFF7CE
:102D700007FD1FBDD5020008780200209802002040
:102D8000C0020020D12E0008DD0400082801002028
:102D9000340200207047000002480068C0F302209F
:102DA000704700000CED00E010B5002807DA0A07B4
:102DB000140E054A00F00F031B1FD45403E00A074A
:102DC000130E024A135410BD18ED00E000E400E0B9
:102DD0007047000008B508490968C9084FF47A72BD
:102DE000B1FBF2F14143009100BF00BF00994A1EC0
:102DF00000920029F9D108BD180000200549097882
:102E0000012902D10349087003E0022801D10149D8
:102E10000870704744000020044800880449088076
:102E200004480088044908807047000050000020D2
:102E30005E00002054000020600000207047000069
:102E400008B50020009012484088ADF800001048F6
:102E50000088ADF8020069460E48FDF729FC20B94C
:102E60000D480068401C0C4908600C480068401C74
:102E70000A49086008460068C72807D9002008608A
:102E80000B20FEF797FC01200549087008BD0000E3
:102E90005A00002044070020680000206C00002039
:102EA0006300002010B500240748807A28B1074845
:102EB000047801200549087001E00348C47A2146DE
:102EC0000148FFF7C1FD10BD78020020440000203A
:102ED00070B50546012613488469AA202070BB20DE
:102EE0006070A5701048007BE070207861784843DE
:102EF000A1784843E17848436060A11C881DFDF734
:102F0000ABFC06460748C069011F2046FDF700FCE0
:102F100060620448FDF7F6F908B1304670BD002044
:102F2000FCE70000340200207802002070B505465E
:102F30000C464FF4805200212046FFF7A7FD0446BF
:102F40004FF4805200212846FFF7A0FD05461220CD
:102F5000FEF730FC08480068446207480068856254
:102F600005480068006820F001000349096808600E
:102F70001220FEF72DFC70BD7400002010B5044631
:102F8000012013490870134800881349088013482A
:102F90000088134908800423FA2212491248FDF7D9
:102FA00044FB0423062211491148FDF73EFB002093
:102FB000104908600B20FEF7FDFB40F6FF7120462C
:102FC000FFF7B4FF02220C490C48FDF745FF10BD86
:102FD0004C000020500000205E0000205400002023
:102FE000600000205C03002044070020280300202C
:102FF00040030020640000205A00002074000020DC
:1030000010B5FEF73DFBFFF76CF810BD10B594B09E
:1030100001200A9000040B9000200C9001200E90DB
:1030200002201190C10312914FF4E01113910AA8EC
:10303000FEF708FE18B19D211AA000F013FB0F2027
:10304000059002200690002007904FF480600890C1
:1030500000200990022105A8FEF7B2FC18B1AB21AF
:1030600010A000F0FFFA022001908003039001A855
:10307000FEF70EFC18B1B2210AA000F0F3FAFEF739
:1030800071FD4FF47A71B0FBF1F42046FFF70FF8B1
:103090000420FEF7F7FF00221146501EFEF7A5FBA5
:1030A00014B010BD2E2E2F5372632F6D61696E2EDA
:1030B000630000001148006840F001000F490860FB
:1030C000084640680E4908400C49486008460068B8
:1030D0000C490840094908600846006820F480202F
:1030E00008600846406820F4FE0048604FF41F0066
:1030F0008860C8030449086070470000001002405F
:103100000000FFF8FFFFF6FE08ED00E010B50248F2
:10311000FFF703F910BD0000E8000020002202685C
:10312000184B984208D0B0F1804F05D0164B98420A
:1031300002D0164B984203D122F070024B681A431A
:10314000104B984208D0B0F1804F05D00E4B9842FA
:1031500002D00E4B984203D122F44072CB681A433E
:1031600022F080024B691A4302608B68C3620B68CD
:103170008362044B984201D10B69036301234361CD
:1031800070470000002C014000040040000800408F
:1031900030B50C460021816821F47F4142EA0325C5
:1031A00025432943816030BD0A460021816821F012
:1031B000700142F0070319438160704730B50B4638
:1031C000144600210022026A056A25F00105056205
:1031D000816921F0F00141EA041122F00A021A4348
:1031E0008161026230BD30B50B46144600210022D9
:1031F000056A25F0100505628169026A21F47041B3
:1032000041EA043122F0A00242EA03128161026223
:1032100030BD70B505466C6A0020E085E08420462C
:10322000FFF74EF970BD70B506460025746A206838
:103230004069C0F3C01594F83900212805D125B1A3
:103240000020E084204600F08DF820684069C0F33B
:10325000801594F83A00222805D125B10020E08598
:10326000204600F05FF8E06B40F01000E06320467D
:10327000FFF726F970BD70B505466C6A28680068CE
:1032800000F02000B0B90020E0852068C06820F47C
:1032900080702168C8602068406920F001002168C2
:1032A00048612068406920F0400021684861202082
:1032B00084F83A002046FFF7C5FA70BD70B50446A1
:1032C000656A2846FFF724FB70BD70B505466C6A39
:1032D0002868006800F0200070B90020E0842068B1
:1032E000406920F08000216848612068C06840F093
:1032F00040002168C86002E02046FFF759FB70BD1E
:1033000070B50446656A2846FFF753FB70BD0000A0
:1033100001460020024B0A689A4200D10120704702
:10332000003801400168C96821F490710268D160D9
:103330000168496921F0010102685161202180F88A
:103340003A10704710B504462068C06820F040006D
:103350002168C860202084F839002046FFF728FB48
:10336000002010BD0168C96821F0C0010268D16069
:10337000202180F83910704770B5044694F83A005F
:1033800022284AD1A068B0F5805F13D1A56A2069D0
:1033900040B920684068C0F308002880A06A801CFB
:1033A000A06219E020684068C0B22880A06A401C72
:1033B000A06211E0206938B920684068C1B2A26AF1
:1033C000501CA062117007E02068406800F07F0187
:1033D000A26A501CA0621170E08D401E80B2E08590
:1033E000C8B92068C06820F020002168C860206843
:1033F000C06820F480702168C8602068406920F0AF
:10340000010021684861202084F83A002046FFF737
:1034100019FA002070BD0020FCE70220FAE7000046
:103420002DE9F041044600252068006920F4405051
:10343000E1680843216808612169A068084361695F
:10344000084305432068C06841F20C618843284363
:103450002168C8602068406920F44070A169084371
:10346000216848615F49206888425CD1FEF790FB83
:1034700000EBC00101EB001061688900B0FBF1F6C0
:10348000FEF786FB00EBC00101EB001061688900CC
:10349000B0FBF1F06421B0FBF1F000EBC00101EBF7
:1034A0000010A6EB8000322101EB00106421B0FB7C
:1034B000F1F000F0F006FEF76BFB00EBC00101EB52
:1034C000001061688900B0FBF1F06421B0FBF1F0FD
:1034D00006EB0016FEF75CFB00EBC00101EB0010F1
:1034E00061688900B0FBF1F7FEF752FB00EBC00109
:1034F00001EB001061688900B0FBF1F06421B0FBC2
:10350000F1F000EBC00101EB0010A7EB80003221CD
:1035100001EB00106421B0FBF1F000F00F0030442B
:10352000216888605BE0FEF723FB00EBC00101EB44
:10353000001061688900B0FBF1F6FEF719FB00EBA3
:10354000C00101EB001061688900B0FBF1F064215B
:10355000B0FBF1F000EBC00101EB0010A6EB800026
:10356000322101EB00106421B0FBF1F000F0F00615
:10357000FEF7FEFA00EBC00101EB00106168890064
:10358000B0FBF1F06421B0FBF1F006EB0016FEF7A2
:10359000EFFA00EBC00101EB001061688900B0FB9D
:1035A000F1F7FEF7E5FA00EBC00101EB00106168EE
:1035B0008900B0FBF1F06421B0FBF1F000EBC00139
:1035C00001EB0010A7EB8000322101EB0010642119
:1035D000B0FBF1F000F00F00304421688860BDE8D6
:1035E000F081000000380140014691F8390021289F
:1035F0002CD18868B0F5805F0FD10A6A1088C0F3BB
:1036000008000B685860086918B9086A801C0862CD
:1036100009E0086A401C086205E00B6A581C086251
:1036200018780B685860C88C401E80B2C88458B99E
:103630000868C06820F080000B68D8600868C0681F
:1036400040F040000B68D860002070470220FCE783
:1036500010B50248FEF736FF10BD0000280100201B
:1036600000BFFEE700BFFEE702E008C8121F08C166
:10367000002AFAD170477047002001E001C1121FF3
:10368000002AFBD170470000FEF706F8FFF7BEFCEA
:10369000FFF78AFAFFF75EFAFFF722FBFFF702FA5D
:1036A000FFF7DEFA0648FFF743FB3220FDF740FE46
:1036B0000448FEF789FD01E0FCF764FFFCE7000029
:1036C00034020020E800002000000000000000009C
:1036D00001020304060708090000000001020304B8
:1036E000CAB9D3C3C7B0CEB4B3F5CABCBBAFB8C3B5
:1036F000CDA8D0C5D7E9BCFEA3A10A00CEB4B3F6CD
:10370000B4ED0000CEB4D4DAD7E9BCFE4D6170BA96
:10371000AFCAFDD6D0D5D2B5BDB4A6C0EDB8C3CA28
:10372000FDBEDDB5C4D7E9BCFEBAC5A3A10A000041
:1037300050370008000000207400000068360008C0
:10374000C437000874000020EC0A00007836000836
:103750000000000000000000000000000000000069
:10376000100000000100000000A24A04FC3600081E
:10377000E036000800000000FC360008E0360008D3
:103780000437000800000000F0010020340200208F
:103790000000000001000000000000000000000028
:1037A0000000000000000000000000000000FF0F0B
:1037B000FF0F0000000000000000000000000000FB
:0437C0000000000005
:04000005080000ED02
:00000001FF
